{
  "_format": "hh-sol-artifact-1",
  "contractName": "CrowdFunding",
  "sourceName": "contracts/CrowdFunding.sol",
  "abi": [
    {
      "inputs": [],
      "name": "admin",
      "outputs": [
        {
          "internalType": "address",
          "name": "",
          "type": "address"
        }
      ],
      "stateMutability": "view",
      "type": "function"
    },
    {
      "inputs": [
        {
          "internalType": "uint256",
          "name": "",
          "type": "uint256"
        }
      ],
      "name": "campaigns",
      "outputs": [
        {
          "internalType": "address",
          "name": "owner",
          "type": "address"
        },
        {
          "internalType": "string",
          "name": "title",
          "type": "string"
        },
        {
          "internalType": "string",
          "name": "description",
          "type": "string"
        },
        {
          "internalType": "uint256",
          "name": "target",
          "type": "uint256"
        },
        {
          "internalType": "uint256",
          "name": "deadline",
          "type": "uint256"
        },
        {
          "internalType": "uint256",
          "name": "amountCollected",
          "type": "uint256"
        },
        {
          "internalType": "uint256",
          "name": "reports",
          "type": "uint256"
        }
      ],
      "stateMutability": "view",
      "type": "function"
    },
    {
      "inputs": [
        {
          "internalType": "address",
          "name": "_owner",
          "type": "address"
        },
        {
          "internalType": "string",
          "name": "_title",
          "type": "string"
        },
        {
          "internalType": "string",
          "name": "_description",
          "type": "string"
        },
        {
          "internalType": "uint256",
          "name": "_target",
          "type": "uint256"
        },
        {
          "internalType": "uint256",
          "name": "_deadline",
          "type": "uint256"
        }
      ],
      "name": "createCampaign",
      "outputs": [
        {
          "internalType": "uint256",
          "name": "",
          "type": "uint256"
        }
      ],
      "stateMutability": "nonpayable",
      "type": "function"
    },
    {
      "inputs": [
        {
          "internalType": "string",
          "name": "_title",
          "type": "string"
        },
        {
          "internalType": "string",
          "name": "_content",
          "type": "string"
        },
        {
          "internalType": "string",
          "name": "_location",
          "type": "string"
        },
        {
          "internalType": "uint256",
          "name": "_deadline",
          "type": "uint256"
        }
      ],
      "name": "createEvent",
      "outputs": [],
      "stateMutability": "nonpayable",
      "type": "function"
    },
    {
      "inputs": [
        {
          "internalType": "string",
          "name": "_headline",
          "type": "string"
        },
        {
          "internalType": "string",
          "name": "_content",
          "type": "string"
        }
      ],
      "name": "createNews",
      "outputs": [],
      "stateMutability": "nonpayable",
      "type": "function"
    },
    {
      "inputs": [
        {
          "internalType": "uint256",
          "name": "_id",
          "type": "uint256"
        }
      ],
      "name": "donateCampaign",
      "outputs": [],
      "stateMutability": "payable",
      "type": "function"
    },
    {
      "inputs": [
        {
          "internalType": "uint256",
          "name": "",
          "type": "uint256"
        }
      ],
      "name": "events",
      "outputs": [
        {
          "internalType": "string",
          "name": "title",
          "type": "string"
        },
        {
          "internalType": "string",
          "name": "content",
          "type": "string"
        },
        {
          "internalType": "string",
          "name": "location",
          "type": "string"
        },
        {
          "internalType": "uint256",
          "name": "date",
          "type": "uint256"
        },
        {
          "internalType": "uint256",
          "name": "timestamp",
          "type": "uint256"
        }
      ],
      "stateMutability": "view",
      "type": "function"
    },
    {
      "inputs": [],
      "name": "getAllEvents",
      "outputs": [
        {
          "components": [
            {
              "internalType": "string",
              "name": "title",
              "type": "string"
            },
            {
              "internalType": "string",
              "name": "content",
              "type": "string"
            },
            {
              "internalType": "string",
              "name": "location",
              "type": "string"
            },
            {
              "internalType": "uint256",
              "name": "date",
              "type": "uint256"
            },
            {
              "internalType": "uint256",
              "name": "timestamp",
              "type": "uint256"
            }
          ],
          "internalType": "struct CrowdFunding.Event[]",
          "name": "",
          "type": "tuple[]"
        }
      ],
      "stateMutability": "view",
      "type": "function"
    },
    {
      "inputs": [],
      "name": "getAllNews",
      "outputs": [
        {
          "components": [
            {
              "internalType": "string",
              "name": "headline",
              "type": "string"
            },
            {
              "internalType": "string",
              "name": "content",
              "type": "string"
            },
            {
              "internalType": "uint256",
              "name": "timestamp",
              "type": "uint256"
            }
          ],
          "internalType": "struct CrowdFunding.News[]",
          "name": "",
          "type": "tuple[]"
        }
      ],
      "stateMutability": "view",
      "type": "function"
    },
    {
      "inputs": [],
      "name": "getCampaigns",
      "outputs": [
        {
          "components": [
            {
              "internalType": "address",
              "name": "owner",
              "type": "address"
            },
            {
              "internalType": "string",
              "name": "title",
              "type": "string"
            },
            {
              "internalType": "string",
              "name": "description",
              "type": "string"
            },
            {
              "internalType": "uint256",
              "name": "target",
              "type": "uint256"
            },
            {
              "internalType": "uint256",
              "name": "deadline",
              "type": "uint256"
            },
            {
              "internalType": "uint256",
              "name": "amountCollected",
              "type": "uint256"
            },
            {
              "internalType": "address[]",
              "name": "donators",
              "type": "address[]"
            },
            {
              "internalType": "uint256[]",
              "name": "donations",
              "type": "uint256[]"
            },
            {
              "internalType": "uint256",
              "name": "reports",
              "type": "uint256"
            },
            {
              "internalType": "address[]",
              "name": "reported",
              "type": "address[]"
            }
          ],
          "internalType": "struct CrowdFunding.Campaign[]",
          "name": "",
          "type": "tuple[]"
        }
      ],
      "stateMutability": "view",
      "type": "function"
    },
    {
      "inputs": [
        {
          "internalType": "uint256",
          "name": "_id",
          "type": "uint256"
        }
      ],
      "name": "getDonators",
      "outputs": [
        {
          "internalType": "address[]",
          "name": "",
          "type": "address[]"
        },
        {
          "internalType": "uint256[]",
          "name": "",
          "type": "uint256[]"
        }
      ],
      "stateMutability": "view",
      "type": "function"
    },
    {
      "inputs": [
        {
          "internalType": "uint256",
          "name": "_id",
          "type": "uint256"
        }
      ],
      "name": "getReported",
      "outputs": [
        {
          "internalType": "address[]",
          "name": "",
          "type": "address[]"
        },
        {
          "internalType": "uint256",
          "name": "",
          "type": "uint256"
        }
      ],
      "stateMutability": "view",
      "type": "function"
    },
    {
      "inputs": [
        {
          "internalType": "uint256",
          "name": "",
          "type": "uint256"
        }
      ],
      "name": "news",
      "outputs": [
        {
          "internalType": "string",
          "name": "headline",
          "type": "string"
        },
        {
          "internalType": "string",
          "name": "content",
          "type": "string"
        },
        {
          "internalType": "uint256",
          "name": "timestamp",
          "type": "uint256"
        }
      ],
      "stateMutability": "view",
      "type": "function"
    },
    {
      "inputs": [],
      "name": "numberOfCampaigns",
      "outputs": [
        {
          "internalType": "uint256",
          "name": "",
          "type": "uint256"
        }
      ],
      "stateMutability": "view",
      "type": "function"
    },
    {
      "inputs": [],
      "name": "numberOfEvents",
      "outputs": [
        {
          "internalType": "uint256",
          "name": "",
          "type": "uint256"
        }
      ],
      "stateMutability": "view",
      "type": "function"
    },
    {
      "inputs": [],
      "name": "numberOfNews",
      "outputs": [
        {
          "internalType": "uint256",
          "name": "",
          "type": "uint256"
        }
      ],
      "stateMutability": "view",
      "type": "function"
    },
    {
      "inputs": [
        {
          "internalType": "uint256",
          "name": "_id",
          "type": "uint256"
        }
      ],
      "name": "reportCampaign",
      "outputs": [],
      "stateMutability": "nonpayable",
      "type": "function"
    }
  ],
  "bytecode": "0x60806040526000600355600060045560006005557371be63f3384f5fb98995898a86b02fb2426c5788600660006101000a81548173ffffffffffffffffffffffffffffffffffffffff021916908373ffffffffffffffffffffffffffffffffffffffff16021790555034801561007457600080fd5b50612a41806100846000396000f3fe6080604052600436106100fe5760003560e01c80634a50c4a211610095578063b22c116811610064578063b22c11681461035b578063c27a500d14610399578063de4cd842146103c4578063f584ecd1146103ed578063f851a44014610418576100fe565b80634a50c4a2146102aa5780635afa34db146102d55780638ffff8b014610314578063a6b0363314610330576100fe565b806310009b01116100d157806310009b01146101ea578063141961bc1461021357806319ce1d0a1461025657806324005d5814610281576100fe565b8063075843c31461010357806307ca140d146101405780630b7914301461016b5780630fa91fa9146101ac575b600080fd5b34801561010f57600080fd5b5061012a600480360381019061012591906119af565b610443565b6040516101379190611a71565b60405180910390f35b34801561014c57600080fd5b50610155610562565b6040516101629190611a71565b60405180910390f35b34801561017757600080fd5b50610192600480360381019061018d9190611a8c565b610568565b6040516101a3959493929190611b38565b60405180910390f35b3480156101b857600080fd5b506101d360048036038101906101ce9190611a8c565b610736565b6040516101e1929190611d1c565b60405180910390f35b3480156101f657600080fd5b50610211600480360381019061020c9190611d53565b610846565b005b34801561021f57600080fd5b5061023a60048036038101906102359190611a8c565b6108a9565b60405161024d9796959493929190611dda565b60405180910390f35b34801561026257600080fd5b5061026b610a1b565b6040516102789190611a71565b60405180910390f35b34801561028d57600080fd5b506102a860048036038101906102a39190611a8c565b610a21565b005b3480156102b657600080fd5b506102bf610aba565b6040516102cc9190611a71565b60405180910390f35b3480156102e157600080fd5b506102fc60048036038101906102f79190611a8c565b610ac0565b60405161030b93929190611e57565b60405180910390f35b61032e60048036038101906103299190611a8c565b610bfa565b005b34801561033c57600080fd5b50610345610d5a565b604051610352919061217c565b60405180910390f35b34801561036757600080fd5b50610382600480360381019061037d9190611a8c565b611130565b60405161039092919061219e565b60405180910390f35b3480156103a557600080fd5b506103ae6111f0565b6040516103bb9190612314565b60405180910390f35b3480156103d057600080fd5b506103eb60048036038101906103e69190612336565b611474565b005b3480156103f957600080fd5b506104026114f4565b60405161040f919061250a565b60405180910390f35b34801561042457600080fd5b5061042d6116e2565b60405161043a919061252c565b60405180910390f35b60008060008060035481526020019081526020016000209050428160040154106104a2576040517f08c379a0000000000000000000000000000000000000000000000000000000008152600401610499906125b9565b60405180910390fd5b868160000160006101000a81548173ffffffffffffffffffffffffffffffffffffffff021916908373ffffffffffffffffffffffffffffffffffffffff160217905550858160010190816104f691906127e5565b508481600201908161050891906127e5565b50838160030181905550828160040181905550600081600501819055506000816008018190555060036000815480929190610542906128e6565b91905055506001600354610556919061292e565b91505095945050505050565b60035481565b600260205280600052604060002060009150905080600001805461058b90612608565b80601f01602080910402602001604051908101604052809291908181526020018280546105b790612608565b80156106045780601f106105d957610100808354040283529160200191610604565b820191906000526020600020905b8154815290600101906020018083116105e757829003601f168201915b50505050509080600101805461061990612608565b80601f016020809104026020016040519081016040528092919081815260200182805461064590612608565b80156106925780601f1061066757610100808354040283529160200191610692565b820191906000526020600020905b81548152906001019060200180831161067557829003601f168201915b5050505050908060020180546106a790612608565b80601f01602080910402602001604051908101604052809291908181526020018280546106d390612608565b80156107205780601f106106f557610100808354040283529160200191610720565b820191906000526020600020905b81548152906001019060200180831161070357829003601f168201915b5050505050908060030154908060040154905085565b606080600080848152602001908152602001600020600601600080858152602001908152602001600020600701818054806020026020016040519081016040528092919081815260200182805480156107e457602002820191906000526020600020905b8160009054906101000a900473ffffffffffffffffffffffffffffffffffffffff1673ffffffffffffffffffffffffffffffffffffffff168152602001906001019080831161079a575b505050505091508080548060200260200160405190810160405280929190818152602001828054801561083657602002820191906000526020600020905b815481526020019060010190808311610822575b5050505050905091509150915091565b600060016000600454815260200190815260200160002090508281600001908161087091906127e5565b508181600101908161088291906127e5565b504281600201819055506004600081548092919061089f906128e6565b9190505550505050565b60006020528060005260406000206000915090508060000160009054906101000a900473ffffffffffffffffffffffffffffffffffffffff16908060010180546108f290612608565b80601f016020809104026020016040519081016040528092919081815260200182805461091e90612608565b801561096b5780601f106109405761010080835404028352916020019161096b565b820191906000526020600020905b81548152906001019060200180831161094e57829003601f168201915b50505050509080600201805461098090612608565b80601f01602080910402602001604051908101604052809291908181526020018280546109ac90612608565b80156109f95780601f106109ce576101008083540402835291602001916109f9565b820191906000526020600020905b8154815290600101906020018083116109dc57829003601f168201915b5050505050908060030154908060040154908060050154908060080154905087565b60045481565b6000806000838152602001908152602001600020905080600901339080600181540180825580915050600190039060005260206000200160009091909190916101000a81548173ffffffffffffffffffffffffffffffffffffffff021916908373ffffffffffffffffffffffffffffffffffffffff160217905550806008016000815480929190610ab1906128e6565b91905055505050565b60055481565b6001602052806000526040600020600091509050806000018054610ae390612608565b80601f0160208091040260200160405190810160405280929190818152602001828054610b0f90612608565b8015610b5c5780601f10610b3157610100808354040283529160200191610b5c565b820191906000526020600020905b815481529060010190602001808311610b3f57829003601f168201915b505050505090806001018054610b7190612608565b80601f0160208091040260200160405190810160405280929190818152602001828054610b9d90612608565b8015610bea5780601f10610bbf57610100808354040283529160200191610bea565b820191906000526020600020905b815481529060010190602001808311610bcd57829003601f168201915b5050505050908060020154905083565b60003490506000806000848152602001908152602001600020905080600601339080600181540180825580915050600190039060005260206000200160009091909190916101000a81548173ffffffffffffffffffffffffffffffffffffffff021916908373ffffffffffffffffffffffffffffffffffffffff1602179055508060070182908060018154018082558091505060019003906000526020600020016000909190919091505560008160000160009054906101000a900473ffffffffffffffffffffffffffffffffffffffff1673ffffffffffffffffffffffffffffffffffffffff1683604051610cef90612993565b60006040518083038185875af1925050503d8060008114610d2c576040519150601f19603f3d011682016040523d82523d6000602084013e610d31565b606091505b505090508015610d5457828260050154610d4b91906129a8565b82600501819055505b50505050565b6060600060035467ffffffffffffffff811115610d7a57610d7961184e565b5b604051908082528060200260200182016040528015610db357816020015b610da0611708565b815260200190600190039081610d985790505b50905060005b600354811015611128576000806000838152602001908152602001600020905080604051806101400160405290816000820160009054906101000a900473ffffffffffffffffffffffffffffffffffffffff1673ffffffffffffffffffffffffffffffffffffffff1673ffffffffffffffffffffffffffffffffffffffff168152602001600182018054610e4c90612608565b80601f0160208091040260200160405190810160405280929190818152602001828054610e7890612608565b8015610ec55780601f10610e9a57610100808354040283529160200191610ec5565b820191906000526020600020905b815481529060010190602001808311610ea857829003601f168201915b50505050508152602001600282018054610ede90612608565b80601f0160208091040260200160405190810160405280929190818152602001828054610f0a90612608565b8015610f575780601f10610f2c57610100808354040283529160200191610f57565b820191906000526020600020905b815481529060010190602001808311610f3a57829003601f168201915b505050505081526020016003820154815260200160048201548152602001600582015481526020016006820180548060200260200160405190810160405280929190818152602001828054801561100357602002820191906000526020600020905b8160009054906101000a900473ffffffffffffffffffffffffffffffffffffffff1673ffffffffffffffffffffffffffffffffffffffff1681526020019060010190808311610fb9575b505050505081526020016007820180548060200260200160405190810160405280929190818152602001828054801561105b57602002820191906000526020600020905b815481526020019060010190808311611047575b5050505050815260200160088201548152602001600982018054806020026020016040519081016040528092919081815260200182805480156110f357602002820191906000526020600020905b8160009054906101000a900473ffffffffffffffffffffffffffffffffffffffff1673ffffffffffffffffffffffffffffffffffffffff16815260200190600101908083116110a9575b50505050508152505083838151811061110f5761110e6129dc565b5b6020026020010181905250508080600101915050610db9565b508091505090565b6060600080600084815260200190815260200160002060090160008085815260200190815260200160002060080154818054806020026020016040519081016040528092919081815260200182805480156111e057602002820191906000526020600020905b8160009054906101000a900473ffffffffffffffffffffffffffffffffffffffff1673ffffffffffffffffffffffffffffffffffffffff1681526020019060010190808311611196575b5050505050915091509150915091565b6060600060055467ffffffffffffffff8111156112105761120f61184e565b5b60405190808252806020026020018201604052801561124957816020015b611236611771565b81526020019060019003908161122e5790505b50905060005b60055481101561146c57600260008281526020019081526020016000206040518060a001604052908160008201805461128790612608565b80601f01602080910402602001604051908101604052809291908181526020018280546112b390612608565b80156113005780601f106112d557610100808354040283529160200191611300565b820191906000526020600020905b8154815290600101906020018083116112e357829003601f168201915b5050505050815260200160018201805461131990612608565b80601f016020809104026020016040519081016040528092919081815260200182805461134590612608565b80156113925780601f1061136757610100808354040283529160200191611392565b820191906000526020600020905b81548152906001019060200180831161137557829003601f168201915b505050505081526020016002820180546113ab90612608565b80601f01602080910402602001604051908101604052809291908181526020018280546113d790612608565b80156114245780601f106113f957610100808354040283529160200191611424565b820191906000526020600020905b81548152906001019060200180831161140757829003601f168201915b5050505050815260200160038201548152602001600482015481525050828281518110611454576114536129dc565b5b6020026020010181905250808060010191505061124f565b508091505090565b600060026000600554815260200190815260200160002090508481600001908161149e91906127e5565b50838160010190816114b091906127e5565b50828160020190816114c291906127e5565b50818160030181905550428160040181905550600560008154809291906114e8906128e6565b91905055505050505050565b6060600060045467ffffffffffffffff8111156115145761151361184e565b5b60405190808252806020026020018201604052801561154d57816020015b61153a6117a0565b8152602001906001900390816115325790505b50905060005b6004548110156116da5760006001600083815260200190815260200160002090508060405180606001604052908160008201805461159090612608565b80601f01602080910402602001604051908101604052809291908181526020018280546115bc90612608565b80156116095780601f106115de57610100808354040283529160200191611609565b820191906000526020600020905b8154815290600101906020018083116115ec57829003601f168201915b5050505050815260200160018201805461162290612608565b80601f016020809104026020016040519081016040528092919081815260200182805461164e90612608565b801561169b5780601f106116705761010080835404028352916020019161169b565b820191906000526020600020905b81548152906001019060200180831161167e57829003601f168201915b505050505081526020016002820154815250508383815181106116c1576116c06129dc565b5b6020026020010181905250508080600101915050611553565b508091505090565b600660009054906101000a900473ffffffffffffffffffffffffffffffffffffffff1681565b604051806101400160405280600073ffffffffffffffffffffffffffffffffffffffff1681526020016060815260200160608152602001600081526020016000815260200160008152602001606081526020016060815260200160008152602001606081525090565b6040518060a0016040528060608152602001606081526020016060815260200160008152602001600081525090565b60405180606001604052806060815260200160608152602001600081525090565b6000604051905090565b600080fd5b600080fd5b600073ffffffffffffffffffffffffffffffffffffffff82169050919050565b6000611800826117d5565b9050919050565b611810816117f5565b811461181b57600080fd5b50565b60008135905061182d81611807565b92915050565b600080fd5b600080fd5b6000601f19601f8301169050919050565b7f4e487b7100000000000000000000000000000000000000000000000000000000600052604160045260246000fd5b6118868261183d565b810181811067ffffffffffffffff821117156118a5576118a461184e565b5b80604052505050565b60006118b86117c1565b90506118c4828261187d565b919050565b600067ffffffffffffffff8211156118e4576118e361184e565b5b6118ed8261183d565b9050602081019050919050565b82818337600083830152505050565b600061191c611917846118c9565b6118ae565b90508281526020810184848401111561193857611937611838565b5b6119438482856118fa565b509392505050565b600082601f8301126119605761195f611833565b5b8135611970848260208601611909565b91505092915050565b6000819050919050565b61198c81611979565b811461199757600080fd5b50565b6000813590506119a981611983565b92915050565b600080600080600060a086880312156119cb576119ca6117cb565b5b60006119d98882890161181e565b955050602086013567ffffffffffffffff8111156119fa576119f96117d0565b5b611a068882890161194b565b945050604086013567ffffffffffffffff811115611a2757611a266117d0565b5b611a338882890161194b565b9350506060611a448882890161199a565b9250506080611a558882890161199a565b9150509295509295909350565b611a6b81611979565b82525050565b6000602082019050611a866000830184611a62565b92915050565b600060208284031215611aa257611aa16117cb565b5b6000611ab08482850161199a565b91505092915050565b600081519050919050565b600082825260208201905092915050565b60005b83811015611af3578082015181840152602081019050611ad8565b60008484015250505050565b6000611b0a82611ab9565b611b148185611ac4565b9350611b24818560208601611ad5565b611b2d8161183d565b840191505092915050565b600060a0820190508181036000830152611b528188611aff565b90508181036020830152611b668187611aff565b90508181036040830152611b7a8186611aff565b9050611b896060830185611a62565b611b966080830184611a62565b9695505050505050565b600081519050919050565b600082825260208201905092915050565b6000819050602082019050919050565b611bd5816117f5565b82525050565b6000611be78383611bcc565b60208301905092915050565b6000602082019050919050565b6000611c0b82611ba0565b611c158185611bab565b9350611c2083611bbc565b8060005b83811015611c51578151611c388882611bdb565b9750611c4383611bf3565b925050600181019050611c24565b5085935050505092915050565b600081519050919050565b600082825260208201905092915050565b6000819050602082019050919050565b611c9381611979565b82525050565b6000611ca58383611c8a565b60208301905092915050565b6000602082019050919050565b6000611cc982611c5e565b611cd38185611c69565b9350611cde83611c7a565b8060005b83811015611d0f578151611cf68882611c99565b9750611d0183611cb1565b925050600181019050611ce2565b5085935050505092915050565b60006040820190508181036000830152611d368185611c00565b90508181036020830152611d4a8184611cbe565b90509392505050565b60008060408385031215611d6a57611d696117cb565b5b600083013567ffffffffffffffff811115611d8857611d876117d0565b5b611d948582860161194b565b925050602083013567ffffffffffffffff811115611db557611db46117d0565b5b611dc18582860161194b565b9150509250929050565b611dd4816117f5565b82525050565b600060e082019050611def600083018a611dcb565b8181036020830152611e018189611aff565b90508181036040830152611e158188611aff565b9050611e246060830187611a62565b611e316080830186611a62565b611e3e60a0830185611a62565b611e4b60c0830184611a62565b98975050505050505050565b60006060820190508181036000830152611e718186611aff565b90508181036020830152611e858185611aff565b9050611e946040830184611a62565b949350505050565b600081519050919050565b600082825260208201905092915050565b6000819050602082019050919050565b600082825260208201905092915050565b6000611ee482611ab9565b611eee8185611ec8565b9350611efe818560208601611ad5565b611f078161183d565b840191505092915050565b600082825260208201905092915050565b6000611f2e82611ba0565b611f388185611f12565b9350611f4383611bbc565b8060005b83811015611f74578151611f5b8882611bdb565b9750611f6683611bf3565b925050600181019050611f47565b5085935050505092915050565b600082825260208201905092915050565b6000611f9d82611c5e565b611fa78185611f81565b9350611fb283611c7a565b8060005b83811015611fe3578151611fca8882611c99565b9750611fd583611cb1565b925050600181019050611fb6565b5085935050505092915050565b6000610140830160008301516120096000860182611bcc565b50602083015184820360208601526120218282611ed9565b9150506040830151848203604086015261203b8282611ed9565b91505060608301516120506060860182611c8a565b5060808301516120636080860182611c8a565b5060a083015161207660a0860182611c8a565b5060c083015184820360c086015261208e8282611f23565b91505060e083015184820360e08601526120a88282611f92565b9150506101008301516120bf610100860182611c8a565b506101208301518482036101208601526120d98282611f23565b9150508091505092915050565b60006120f28383611ff0565b905092915050565b6000602082019050919050565b600061211282611e9c565b61211c8185611ea7565b93508360208202850161212e85611eb8565b8060005b8581101561216a578484038952815161214b85826120e6565b9450612156836120fa565b925060208a01995050600181019050612132565b50829750879550505050505092915050565b600060208201905081810360008301526121968184612107565b905092915050565b600060408201905081810360008301526121b88185611c00565b90506121c76020830184611a62565b9392505050565b600081519050919050565b600082825260208201905092915050565b6000819050602082019050919050565b600060a08301600083015184820360008601526122178282611ed9565b915050602083015184820360208601526122318282611ed9565b9150506040830151848203604086015261224b8282611ed9565b91505060608301516122606060860182611c8a565b5060808301516122736080860182611c8a565b508091505092915050565b600061228a83836121fa565b905092915050565b6000602082019050919050565b60006122aa826121ce565b6122b481856121d9565b9350836020820285016122c6856121ea565b8060005b8581101561230257848403895281516122e3858261227e565b94506122ee83612292565b925060208a019950506001810190506122ca565b50829750879550505050505092915050565b6000602082019050818103600083015261232e818461229f565b905092915050565b600080600080608085870312156123505761234f6117cb565b5b600085013567ffffffffffffffff81111561236e5761236d6117d0565b5b61237a8782880161194b565b945050602085013567ffffffffffffffff81111561239b5761239a6117d0565b5b6123a78782880161194b565b935050604085013567ffffffffffffffff8111156123c8576123c76117d0565b5b6123d48782880161194b565b92505060606123e58782880161199a565b91505092959194509250565b600081519050919050565b600082825260208201905092915050565b6000819050602082019050919050565b6000606083016000830151848203600086015261243a8282611ed9565b915050602083015184820360208601526124548282611ed9565b91505060408301516124696040860182611c8a565b508091505092915050565b6000612480838361241d565b905092915050565b6000602082019050919050565b60006124a0826123f1565b6124aa81856123fc565b9350836020820285016124bc8561240d565b8060005b858110156124f857848403895281516124d98582612474565b94506124e483612488565b925060208a019950506001810190506124c0565b50829750879550505050505092915050565b600060208201905081810360008301526125248184612495565b905092915050565b60006020820190506125416000830184611dcb565b92915050565b7f54686520646561646c696e652073686f756c64206265206461746520696e207460008201527f6865206675747572650000000000000000000000000000000000000000000000602082015250565b60006125a3602983611ac4565b91506125ae82612547565b604082019050919050565b600060208201905081810360008301526125d281612596565b9050919050565b7f4e487b7100000000000000000000000000000000000000000000000000000000600052602260045260246000fd5b6000600282049050600182168061262057607f821691505b602082108103612633576126326125d9565b5b50919050565b60008190508160005260206000209050919050565b60006020601f8301049050919050565b600082821b905092915050565b60006008830261269b7fffffffffffffffffffffffffffffffffffffffffffffffffffffffffffffffff8261265e565b6126a5868361265e565b95508019841693508086168417925050509392505050565b6000819050919050565b60006126e26126dd6126d884611979565b6126bd565b611979565b9050919050565b6000819050919050565b6126fc836126c7565b612710612708826126e9565b84845461266b565b825550505050565b600090565b612725612718565b6127308184846126f3565b505050565b5b818110156127545761274960008261271d565b600181019050612736565b5050565b601f8211156127995761276a81612639565b6127738461264e565b81016020851015612782578190505b61279661278e8561264e565b830182612735565b50505b505050565b600082821c905092915050565b60006127bc6000198460080261279e565b1980831691505092915050565b60006127d583836127ab565b9150826002028217905092915050565b6127ee82611ab9565b67ffffffffffffffff8111156128075761280661184e565b5b6128118254612608565b61281c828285612758565b600060209050601f83116001811461284f576000841561283d578287015190505b61284785826127c9565b8655506128af565b601f19841661285d86612639565b60005b8281101561288557848901518255600182019150602085019450602081019050612860565b868310156128a2578489015161289e601f8916826127ab565b8355505b6001600288020188555050505b505050505050565b7f4e487b7100000000000000000000000000000000000000000000000000000000600052601160045260246000fd5b60006128f182611979565b91507fffffffffffffffffffffffffffffffffffffffffffffffffffffffffffffffff8203612923576129226128b7565b5b600182019050919050565b600061293982611979565b915061294483611979565b925082820390508181111561295c5761295b6128b7565b5b92915050565b600081905092915050565b50565b600061297d600083612962565b91506129888261296d565b600082019050919050565b600061299e82612970565b9150819050919050565b60006129b382611979565b91506129be83611979565b92508282019050808211156129d6576129d56128b7565b5b92915050565b7f4e487b7100000000000000000000000000000000000000000000000000000000600052603260045260246000fdfea2646970667358221220aca2972102e82e15d95735135c630ca0c3d3a9ef56e88292e1e016750e59882564736f6c63430008180033",
  "linkReferences": {},
  "deployedLinkReferences": {}
}