{
  "_format": "hh-sol-artifact-1",
  "contractName": "CrowdFunding",
  "sourceName": "contracts/CrowdFunding.sol",
  "abi": [
    {
      "inputs": [
        {
          "internalType": "uint256",
          "name": "",
          "type": "uint256"
        }
      ],
      "name": "campaigns",
      "outputs": [
        {
          "internalType": "address",
          "name": "owner",
          "type": "address"
        },
        {
          "internalType": "string",
          "name": "title",
          "type": "string"
        },
        {
          "internalType": "string",
          "name": "description",
          "type": "string"
        },
        {
          "internalType": "uint256",
          "name": "target",
          "type": "uint256"
        },
        {
          "internalType": "uint256",
          "name": "deadline",
          "type": "uint256"
        },
        {
          "internalType": "uint256",
          "name": "amountCollected",
          "type": "uint256"
        },
        {
          "internalType": "uint256",
          "name": "reports",
          "type": "uint256"
        }
      ],
      "stateMutability": "view",
      "type": "function"
    },
    {
      "inputs": [
        {
          "internalType": "address",
          "name": "_owner",
          "type": "address"
        },
        {
          "internalType": "string",
          "name": "_title",
          "type": "string"
        },
        {
          "internalType": "string",
          "name": "_description",
          "type": "string"
        },
        {
          "internalType": "uint256",
          "name": "_target",
          "type": "uint256"
        },
        {
          "internalType": "uint256",
          "name": "_deadline",
          "type": "uint256"
        }
      ],
      "name": "createCampaign",
      "outputs": [
        {
          "internalType": "uint256",
          "name": "",
          "type": "uint256"
        }
      ],
      "stateMutability": "nonpayable",
      "type": "function"
    },
    {
      "inputs": [
        {
          "internalType": "uint256",
          "name": "_id",
          "type": "uint256"
        }
      ],
      "name": "donateCampaign",
      "outputs": [],
      "stateMutability": "payable",
      "type": "function"
    },
    {
      "inputs": [],
      "name": "getCampaigns",
      "outputs": [
        {
          "components": [
            {
              "internalType": "address",
              "name": "owner",
              "type": "address"
            },
            {
              "internalType": "string",
              "name": "title",
              "type": "string"
            },
            {
              "internalType": "string",
              "name": "description",
              "type": "string"
            },
            {
              "internalType": "uint256",
              "name": "target",
              "type": "uint256"
            },
            {
              "internalType": "uint256",
              "name": "deadline",
              "type": "uint256"
            },
            {
              "internalType": "uint256",
              "name": "amountCollected",
              "type": "uint256"
            },
            {
              "internalType": "address[]",
              "name": "donators",
              "type": "address[]"
            },
            {
              "internalType": "uint256[]",
              "name": "donations",
              "type": "uint256[]"
            },
            {
              "internalType": "uint256",
              "name": "reports",
              "type": "uint256"
            },
            {
              "internalType": "address[]",
              "name": "reported",
              "type": "address[]"
            }
          ],
          "internalType": "struct CrowdFunding.Campaign[]",
          "name": "",
          "type": "tuple[]"
        }
      ],
      "stateMutability": "view",
      "type": "function"
    },
    {
      "inputs": [
        {
          "internalType": "uint256",
          "name": "_id",
          "type": "uint256"
        }
      ],
      "name": "getDonators",
      "outputs": [
        {
          "internalType": "address[]",
          "name": "",
          "type": "address[]"
        },
        {
          "internalType": "uint256[]",
          "name": "",
          "type": "uint256[]"
        }
      ],
      "stateMutability": "view",
      "type": "function"
    },
    {
      "inputs": [
        {
          "internalType": "uint256",
          "name": "_id",
          "type": "uint256"
        }
      ],
      "name": "getReported",
      "outputs": [
        {
          "internalType": "address[]",
          "name": "",
          "type": "address[]"
        },
        {
          "internalType": "uint256",
          "name": "",
          "type": "uint256"
        }
      ],
      "stateMutability": "view",
      "type": "function"
    },
    {
      "inputs": [],
      "name": "numberOfCampaigns",
      "outputs": [
        {
          "internalType": "uint256",
          "name": "",
          "type": "uint256"
        }
      ],
      "stateMutability": "view",
      "type": "function"
    },
    {
      "inputs": [
        {
          "internalType": "uint256",
          "name": "_id",
          "type": "uint256"
        }
      ],
      "name": "reportCampaign",
      "outputs": [],
      "stateMutability": "nonpayable",
      "type": "function"
    }
  ],
  "bytecode": "0x6080604052600060015534801561001557600080fd5b50611a97806100256000396000f3fe60806040526004361061007b5760003560e01c806324005d581161004e57806324005d58146101695780638ffff8b014610192578063a6b03633146101ae578063b22c1168146101d95761007b565b8063075843c31461008057806307ca140d146100bd5780630fa91fa9146100e8578063141961bc14610126575b600080fd5b34801561008c57600080fd5b506100a760048036038101906100a29190610ea3565b610217565b6040516100b49190610f65565b60405180910390f35b3480156100c957600080fd5b506100d2610335565b6040516100df9190610f65565b60405180910390f35b3480156100f457600080fd5b5061010f600480360381019061010a9190610f80565b61033b565b60405161011d929190611129565b60405180910390f35b34801561013257600080fd5b5061014d60048036038101906101489190610f80565b61044b565b60405161016097969594939291906111ee565b60405180910390f35b34801561017557600080fd5b50610190600480360381019061018b9190610f80565b6105bd565b005b6101ac60048036038101906101a79190610f80565b610656565b005b3480156101ba57600080fd5b506101c36107b6565b6040516101d0919061154b565b60405180910390f35b3480156101e557600080fd5b5061020060048036038101906101fb9190610f80565b610b8c565b60405161020e92919061156d565b60405180910390f35b6000806000806001548152602001908152602001600020905042816004015410610276576040517f08c379a000000000000000000000000000000000000000000000000000000000815260040161026d9061160f565b60405180910390fd5b868160000160006101000a81548173ffffffffffffffffffffffffffffffffffffffff021916908373ffffffffffffffffffffffffffffffffffffffff160217905550858160010190816102ca919061183b565b50848160020190816102dc919061183b565b508381600301819055508281600401819055506000816005018190555060008160080181905550600160008154809291906103169061193c565b9190505550600180546103299190611984565b91505095945050505050565b60015481565b606080600080848152602001908152602001600020600601600080858152602001908152602001600020600701818054806020026020016040519081016040528092919081815260200182805480156103e957602002820191906000526020600020905b8160009054906101000a900473ffffffffffffffffffffffffffffffffffffffff1673ffffffffffffffffffffffffffffffffffffffff168152602001906001019080831161039f575b505050505091508080548060200260200160405190810160405280929190818152602001828054801561043b57602002820191906000526020600020905b815481526020019060010190808311610427575b5050505050905091509150915091565b60006020528060005260406000206000915090508060000160009054906101000a900473ffffffffffffffffffffffffffffffffffffffff16908060010180546104949061165e565b80601f01602080910402602001604051908101604052809291908181526020018280546104c09061165e565b801561050d5780601f106104e25761010080835404028352916020019161050d565b820191906000526020600020905b8154815290600101906020018083116104f057829003601f168201915b5050505050908060020180546105229061165e565b80601f016020809104026020016040519081016040528092919081815260200182805461054e9061165e565b801561059b5780601f106105705761010080835404028352916020019161059b565b820191906000526020600020905b81548152906001019060200180831161057e57829003601f168201915b5050505050908060030154908060040154908060050154908060080154905087565b6000806000838152602001908152602001600020905080600901339080600181540180825580915050600190039060005260206000200160009091909190916101000a81548173ffffffffffffffffffffffffffffffffffffffff021916908373ffffffffffffffffffffffffffffffffffffffff16021790555080600801600081548092919061064d9061193c565b91905055505050565b60003490506000806000848152602001908152602001600020905080600601339080600181540180825580915050600190039060005260206000200160009091909190916101000a81548173ffffffffffffffffffffffffffffffffffffffff021916908373ffffffffffffffffffffffffffffffffffffffff1602179055508060070182908060018154018082558091505060019003906000526020600020016000909190919091505560008160000160009054906101000a900473ffffffffffffffffffffffffffffffffffffffff1673ffffffffffffffffffffffffffffffffffffffff168360405161074b906119e9565b60006040518083038185875af1925050503d8060008114610788576040519150601f19603f3d011682016040523d82523d6000602084013e61078d565b606091505b5050905080156107b0578282600501546107a791906119fe565b82600501819055505b50505050565b6060600060015467ffffffffffffffff8111156107d6576107d5610d42565b5b60405190808252806020026020018201604052801561080f57816020015b6107fc610c4c565b8152602001906001900390816107f45790505b50905060005b600154811015610b84576000806000838152602001908152602001600020905080604051806101400160405290816000820160009054906101000a900473ffffffffffffffffffffffffffffffffffffffff1673ffffffffffffffffffffffffffffffffffffffff1673ffffffffffffffffffffffffffffffffffffffff1681526020016001820180546108a89061165e565b80601f01602080910402602001604051908101604052809291908181526020018280546108d49061165e565b80156109215780601f106108f657610100808354040283529160200191610921565b820191906000526020600020905b81548152906001019060200180831161090457829003601f168201915b5050505050815260200160028201805461093a9061165e565b80601f01602080910402602001604051908101604052809291908181526020018280546109669061165e565b80156109b35780601f10610988576101008083540402835291602001916109b3565b820191906000526020600020905b81548152906001019060200180831161099657829003601f168201915b5050505050815260200160038201548152602001600482015481526020016005820154815260200160068201805480602002602001604051908101604052809291908181526020018280548015610a5f57602002820191906000526020600020905b8160009054906101000a900473ffffffffffffffffffffffffffffffffffffffff1673ffffffffffffffffffffffffffffffffffffffff1681526020019060010190808311610a15575b5050505050815260200160078201805480602002602001604051908101604052809291908181526020018280548015610ab757602002820191906000526020600020905b815481526020019060010190808311610aa3575b505050505081526020016008820154815260200160098201805480602002602001604051908101604052809291908181526020018280548015610b4f57602002820191906000526020600020905b8160009054906101000a900473ffffffffffffffffffffffffffffffffffffffff1673ffffffffffffffffffffffffffffffffffffffff1681526020019060010190808311610b05575b505050505081525050838381518110610b6b57610b6a611a32565b5b6020026020010181905250508080600101915050610815565b508091505090565b606060008060008481526020019081526020016000206009016000808581526020019081526020016000206008015481805480602002602001604051908101604052809291908181526020018280548015610c3c57602002820191906000526020600020905b8160009054906101000a900473ffffffffffffffffffffffffffffffffffffffff1673ffffffffffffffffffffffffffffffffffffffff1681526020019060010190808311610bf2575b5050505050915091509150915091565b604051806101400160405280600073ffffffffffffffffffffffffffffffffffffffff1681526020016060815260200160608152602001600081526020016000815260200160008152602001606081526020016060815260200160008152602001606081525090565b6000604051905090565b600080fd5b600080fd5b600073ffffffffffffffffffffffffffffffffffffffff82169050919050565b6000610cf482610cc9565b9050919050565b610d0481610ce9565b8114610d0f57600080fd5b50565b600081359050610d2181610cfb565b92915050565b600080fd5b600080fd5b6000601f19601f8301169050919050565b7f4e487b7100000000000000000000000000000000000000000000000000000000600052604160045260246000fd5b610d7a82610d31565b810181811067ffffffffffffffff82111715610d9957610d98610d42565b5b80604052505050565b6000610dac610cb5565b9050610db88282610d71565b919050565b600067ffffffffffffffff821115610dd857610dd7610d42565b5b610de182610d31565b9050602081019050919050565b82818337600083830152505050565b6000610e10610e0b84610dbd565b610da2565b905082815260208101848484011115610e2c57610e2b610d2c565b5b610e37848285610dee565b509392505050565b600082601f830112610e5457610e53610d27565b5b8135610e64848260208601610dfd565b91505092915050565b6000819050919050565b610e8081610e6d565b8114610e8b57600080fd5b50565b600081359050610e9d81610e77565b92915050565b600080600080600060a08688031215610ebf57610ebe610cbf565b5b6000610ecd88828901610d12565b955050602086013567ffffffffffffffff811115610eee57610eed610cc4565b5b610efa88828901610e3f565b945050604086013567ffffffffffffffff811115610f1b57610f1a610cc4565b5b610f2788828901610e3f565b9350506060610f3888828901610e8e565b9250506080610f4988828901610e8e565b9150509295509295909350565b610f5f81610e6d565b82525050565b6000602082019050610f7a6000830184610f56565b92915050565b600060208284031215610f9657610f95610cbf565b5b6000610fa484828501610e8e565b91505092915050565b600081519050919050565b600082825260208201905092915050565b6000819050602082019050919050565b610fe281610ce9565b82525050565b6000610ff48383610fd9565b60208301905092915050565b6000602082019050919050565b600061101882610fad565b6110228185610fb8565b935061102d83610fc9565b8060005b8381101561105e5781516110458882610fe8565b975061105083611000565b925050600181019050611031565b5085935050505092915050565b600081519050919050565b600082825260208201905092915050565b6000819050602082019050919050565b6110a081610e6d565b82525050565b60006110b28383611097565b60208301905092915050565b6000602082019050919050565b60006110d68261106b565b6110e08185611076565b93506110eb83611087565b8060005b8381101561111c57815161110388826110a6565b975061110e836110be565b9250506001810190506110ef565b5085935050505092915050565b60006040820190508181036000830152611143818561100d565b9050818103602083015261115781846110cb565b90509392505050565b61116981610ce9565b82525050565b600081519050919050565b600082825260208201905092915050565b60005b838110156111a957808201518184015260208101905061118e565b60008484015250505050565b60006111c08261116f565b6111ca818561117a565b93506111da81856020860161118b565b6111e381610d31565b840191505092915050565b600060e082019050611203600083018a611160565b818103602083015261121581896111b5565b9050818103604083015261122981886111b5565b90506112386060830187610f56565b6112456080830186610f56565b61125260a0830185610f56565b61125f60c0830184610f56565b98975050505050505050565b600081519050919050565b600082825260208201905092915050565b6000819050602082019050919050565b600082825260208201905092915050565b60006112b38261116f565b6112bd8185611297565b93506112cd81856020860161118b565b6112d681610d31565b840191505092915050565b600082825260208201905092915050565b60006112fd82610fad565b61130781856112e1565b935061131283610fc9565b8060005b8381101561134357815161132a8882610fe8565b975061133583611000565b925050600181019050611316565b5085935050505092915050565b600082825260208201905092915050565b600061136c8261106b565b6113768185611350565b935061138183611087565b8060005b838110156113b257815161139988826110a6565b97506113a4836110be565b925050600181019050611385565b5085935050505092915050565b6000610140830160008301516113d86000860182610fd9565b50602083015184820360208601526113f082826112a8565b9150506040830151848203604086015261140a82826112a8565b915050606083015161141f6060860182611097565b5060808301516114326080860182611097565b5060a083015161144560a0860182611097565b5060c083015184820360c086015261145d82826112f2565b91505060e083015184820360e08601526114778282611361565b91505061010083015161148e610100860182611097565b506101208301518482036101208601526114a882826112f2565b9150508091505092915050565b60006114c183836113bf565b905092915050565b6000602082019050919050565b60006114e18261126b565b6114eb8185611276565b9350836020820285016114fd85611287565b8060005b85811015611539578484038952815161151a85826114b5565b9450611525836114c9565b925060208a01995050600181019050611501565b50829750879550505050505092915050565b6000602082019050818103600083015261156581846114d6565b905092915050565b60006040820190508181036000830152611587818561100d565b90506115966020830184610f56565b9392505050565b7f54686520646561646c696e652073686f756c64206265206461746520696e207460008201527f6865206675747572650000000000000000000000000000000000000000000000602082015250565b60006115f960298361117a565b91506116048261159d565b604082019050919050565b60006020820190508181036000830152611628816115ec565b9050919050565b7f4e487b7100000000000000000000000000000000000000000000000000000000600052602260045260246000fd5b6000600282049050600182168061167657607f821691505b6020821081036116895761168861162f565b5b50919050565b60008190508160005260206000209050919050565b60006020601f8301049050919050565b600082821b905092915050565b6000600883026116f17fffffffffffffffffffffffffffffffffffffffffffffffffffffffffffffffff826116b4565b6116fb86836116b4565b95508019841693508086168417925050509392505050565b6000819050919050565b600061173861173361172e84610e6d565b611713565b610e6d565b9050919050565b6000819050919050565b6117528361171d565b61176661175e8261173f565b8484546116c1565b825550505050565b600090565b61177b61176e565b611786818484611749565b505050565b5b818110156117aa5761179f600082611773565b60018101905061178c565b5050565b601f8211156117ef576117c08161168f565b6117c9846116a4565b810160208510156117d8578190505b6117ec6117e4856116a4565b83018261178b565b50505b505050565b600082821c905092915050565b6000611812600019846008026117f4565b1980831691505092915050565b600061182b8383611801565b9150826002028217905092915050565b6118448261116f565b67ffffffffffffffff81111561185d5761185c610d42565b5b611867825461165e565b6118728282856117ae565b600060209050601f8311600181146118a55760008415611893578287015190505b61189d858261181f565b865550611905565b601f1984166118b38661168f565b60005b828110156118db578489015182556001820191506020850194506020810190506118b6565b868310156118f857848901516118f4601f891682611801565b8355505b6001600288020188555050505b505050505050565b7f4e487b7100000000000000000000000000000000000000000000000000000000600052601160045260246000fd5b600061194782610e6d565b91507fffffffffffffffffffffffffffffffffffffffffffffffffffffffffffffffff82036119795761197861190d565b5b600182019050919050565b600061198f82610e6d565b915061199a83610e6d565b92508282039050818111156119b2576119b161190d565b5b92915050565b600081905092915050565b50565b60006119d36000836119b8565b91506119de826119c3565b600082019050919050565b60006119f4826119c6565b9150819050919050565b6000611a0982610e6d565b9150611a1483610e6d565b9250828201905080821115611a2c57611a2b61190d565b5b92915050565b7f4e487b7100000000000000000000000000000000000000000000000000000000600052603260045260246000fdfea2646970667358221220f77ce5319247a38fb3d4380ea80207dbfe965a46959f4638869ea0e5f0bb9f0664736f6c63430008180033",
  "linkReferences": {},
  "deployedLinkReferences": {}
}